S01400004C6162335F4D61657374726F2E7372656394
S11300000C9434000C9451000C9451000C94510045
S11300100C9451000C9451000C9451000C94510018
S11300200C9451000C9451000C9451000C94510008
S11300300C9451000C9451000C9451000C945100F8
S11300400C9451000C9451000C9451000C945100E8
S11300500C9451000C9451000C9451000C945100D8
S11300600C9451000C94510011241FBECFEFD8E022
S1130070DEBFCDBF11E0A0E0B1E0EEE5F5E002C0E7
S113008005900D92AA30B107D9F721E0AAE0B1E0BA
S113009001C01D92AB30B207E1F70E940E020C942E
S11300A0AD020C9400000F931F93CF938B019C011E
S11300B0C42F87B18F7C87B9443079F018F441306C
S11300C031F023C0403191F04034C9F01EC0E9EB57
S11300D0F0E080818C7F80831EC0E9EBF0E08081BA
S11300E08D7F808380818160808315C0E9EBF0E09F
S11300F080818E7F80838081826080830CC0E9EB65
S1130100F0E080818360808306C0E9EBF0E08081C9
S11301108C7F8083C1E060E074E284EF90E0A90109
S113012098010E945602CA01B901605171098109FE
S113013091094C2F50E09A01220F331F032E000C1B
S1130140440B550B0E9456022093B800ECEBF0E0F0
S1130150808184608083CF911F910F91089584EAF8
S11301608093BC008091BC008823E4F7089584E95F
S11301708093BC0008958093BB0084E88093BC0006
S11301808091BC008823E4F78091B900887F88318E
S113019031F0883231F0803429F481E0089581E02F
S11301A0089581E00895DC01662331F0ECEBF0E082
S11301B090819064908305C0ECEBF0E090819F7B8C
S11301C09083ECEBF0E09081906890839091BC0078
S11301D09923E4F79091B900987F983511F0903500
S11301E029F48091BB008C9381E00895892F0895B0
S11301F088B1826088B985E08A95F1F7000088B1FA
S11302008D7F88B987EC90E00197F1F700C000007A
S113021008951BB88BB9089598B19E7F98B90E9430
S113022009010E94F8008FE39FE10197F1F700C0F4
S1130230000008958AB18FEF8AB987B1836087B9C6
S11302402FEF89EF90E0215080409040E1F700C00B
S1130250000080E30E940C018FE19EE40197F1F716
S113026000C0000080E30E940C018FE891E0019738
S1130270F1F700C0000080E30E940C0188E30E94B3
S11302800C0188E00E940C0181E00E940C0186E0D0
S11302900E940C018CE00E940C0108958111605CA5
S11302A0862F80680E940C01089581E00E940C0151
S11302B08FE39FE10197F1F700C00000089598B122
S11302C0916098B90E9409010E94F80087EC90E0BF
S11302D00197F1F700C000000895CF93DF93EC017C
S11302E003C021960E945F0188818111FACFDF91BA
S11302F0CF910895ECEBF0E0108285E38A95F1F755
S1130300000084E0808308950F931F93CF938B01A3
S113031090E0880F991FC82FC1600E947A010E9443
S1130320AF008C2F0E94BB00813021F00E94B700E7
S113033080E00DC061E0C8010E94D300813021F04B
S11303400E94B70080E003C00E94B70081E0CF9113
S11303501F910F910895CF93DF93EB014AE090E052
S11303600E94780280E001C08F5FFE01E80FF11D5A
S113037090819111F9CF06C0FE01E80FF11D90E2C2
S113038090838F5F8330C0F3C80FD11D1882DF9133
S1130390CF910895EF92FF920F931F93CF93DF9322
S11303A0CDB7DEB72A970FB6F894DEBF0FBECDBF28
S11303B085E09E012F5F3F4F7901F901282F1192AB
S11303C02A95E9F78E010A5F1F4FF80111928A9569
S11303D0E9F7B70180910A010E94AB01B80180914D
S11303E000010E94AB0161E081E00E944E01C7015F
S11303F00E946D0168E081E00E944E01C8010E94E4
S11304006D012A960FB6F894DEBF0FBECDBFDF9103
S1130410CF911F910F91FF90EF90089584B1806266
S113042084B941E060EA76E881E090E00E945300FC
S11304300E941A010E94550161E080E00E944E0171
S113044081E091E00E946D0168E080E00E944E012D
S113045085E091E00E946D010E94CA016AE071E0AA
S113046080E20E9484012FEF89EF90E021508040C8
S11304709040E1F700C0000060E071E080E30E947A
S113048084012FEF89EF90E0215080409040E1F704
S113049000C000000E94CA012FEF89EF90E02150B4
S11304A080409040E1F700C00000D8CFA1E21A2EAE
S11304B0AA1BBB1BFD010DC0AA1FBB1FEE1FFF1F04
S11304C0A217B307E407F50720F0A21BB30BE40B54
S11304D0F50B661F771F881F991F1A9469F760959B
S11304E07095809590959B01AC01BD01CF01089555
S11304F0BB274A3031F4992322F4BDE290958195CB
S11305009F4F0C948402BB27FB015527AA27880F11
S1130510991FAA1FA41710F0A41B83955051B9F773
S1130520A05DAA3308F0A95DA193009779F7B111F2
S1130530B1931192CB010C949D02DC01FC01672F55
S113054071917723E1F7329704C07C916D937083A6
S11105506291AE17BF07C8F30895F894FFCF69
S10D055E0153313A0053323A000011
S9030000FC
