S01500004573636C61766F5F34626974732E73726563FD
S11300000C9434000C9451000C9451000C94510045
S11300100C9451000C9451000C9451000C94510018
S11300200C9451000C9451000C9451000C94510008
S11300300C9451000C9451000C9451000C945100F8
S11300400C9451000C9451000C9451000C945100E8
S11300500C9451000C9451000C9451000C945100D8
S11300600C9471000C94510011241FBECFEFD8E002
S1130070DEBFCDBF11E0A0E0B1E0EAE0F2E002C0F3
S113008005900D92A230B107D9F721E0A2E0B1E0CA
S113009001C01D92A330B207E1F70E94F8000C944E
S11300A003010C94000097B19F7C97B9880F80934B
S11300B0BA0085E48093BC00089584B18E6184B94C
S11300C08AB1837F8AB98BB18C608BB984B1806229
S11300D084B985B18F7D85B980E20E9453007894FC
S11300E008951F920F920FB60F9211248F93EF93DE
S11300F0FF938091B900887F8039A9F038F4803764
S113010061F0803881F0803671F507C0883BD9F002
S1130110803C19F1883A39F50CC0ECEBF0E08081B1
S1130120806C808325C0ECEBF0E08081806C808360
S11301301FC0809102018093BB00ECEBF0E0808152
S1130140806C808315C0809102018093BB00ECEB2E
S1130150F0E08081806C80830BC0ECEBF0E0808168
S11301608068808305C0ECEBF0E080818069808347
S1130170FF91EF918F910F900FBE0F901F901895E4
S113018029B12C7080910001281789F13FEF89EF84
S113019090E0315080409040E1F700C000004A995F
S11301A00BC0809102018F3020F4809102018F5F97
S11301B001C08FE0809302014B990BC08091020132
S11301C0882321F080910201815001C080E0809356
S11301D0020135B1909102019F70892F90E0880F40
S11301E0991F932F907E892B85B920930001089540
S11301F00E945D000E94C0008FE39CE90197F1F723
S10D020000C00000F7CFF894FFCF10
S105020AFF00EF
S9030000FC
